{
  "_format": "hh-sol-artifact-1",
  "contractName": "Yooci",
  "sourceName": "contracts/Yooci.sol",
  "abi": [
    {
      "inputs": [],
      "stateMutability": "nonpayable",
      "type": "constructor"
    },
    {
      "anonymous": false,
      "inputs": [
        {
          "indexed": true,
          "internalType": "address",
          "name": "owner",
          "type": "address"
        },
        {
          "indexed": true,
          "internalType": "address",
          "name": "approved",
          "type": "address"
        },
        {
          "indexed": true,
          "internalType": "uint256",
          "name": "tokenId",
          "type": "uint256"
        }
      ],
      "name": "Approval",
      "type": "event"
    },
    {
      "anonymous": false,
      "inputs": [
        {
          "indexed": true,
          "internalType": "address",
          "name": "owner",
          "type": "address"
        },
        {
          "indexed": true,
          "internalType": "address",
          "name": "operator",
          "type": "address"
        },
        {
          "indexed": false,
          "internalType": "bool",
          "name": "approved",
          "type": "bool"
        }
      ],
      "name": "ApprovalForAll",
      "type": "event"
    },
    {
      "anonymous": false,
      "inputs": [
        {
          "indexed": false,
          "internalType": "address",
          "name": "recordOwner",
          "type": "address"
        },
        {
          "indexed": false,
          "internalType": "string",
          "name": "tokenURI",
          "type": "string"
        },
        {
          "indexed": false,
          "internalType": "uint256",
          "name": "tokenID",
          "type": "uint256"
        },
        {
          "indexed": false,
          "internalType": "bool",
          "name": "isValue",
          "type": "bool"
        }
      ],
      "name": "RecordCreated",
      "type": "event"
    },
    {
      "anonymous": false,
      "inputs": [
        {
          "indexed": false,
          "internalType": "address",
          "name": "recordOwner",
          "type": "address"
        },
        {
          "indexed": false,
          "internalType": "string",
          "name": "tokenURI",
          "type": "string"
        },
        {
          "indexed": false,
          "internalType": "uint256",
          "name": "tokenID",
          "type": "uint256"
        },
        {
          "indexed": false,
          "internalType": "bool",
          "name": "isValue",
          "type": "bool"
        }
      ],
      "name": "RecordUpdated",
      "type": "event"
    },
    {
      "anonymous": false,
      "inputs": [
        {
          "indexed": true,
          "internalType": "address",
          "name": "from",
          "type": "address"
        },
        {
          "indexed": true,
          "internalType": "address",
          "name": "to",
          "type": "address"
        },
        {
          "indexed": true,
          "internalType": "uint256",
          "name": "tokenId",
          "type": "uint256"
        }
      ],
      "name": "Transfer",
      "type": "event"
    },
    {
      "inputs": [
        {
          "internalType": "address",
          "name": "to",
          "type": "address"
        },
        {
          "internalType": "uint256",
          "name": "tokenId",
          "type": "uint256"
        }
      ],
      "name": "approve",
      "outputs": [],
      "stateMutability": "nonpayable",
      "type": "function"
    },
    {
      "inputs": [
        {
          "internalType": "address",
          "name": "owner",
          "type": "address"
        }
      ],
      "name": "balanceOf",
      "outputs": [
        {
          "internalType": "uint256",
          "name": "",
          "type": "uint256"
        }
      ],
      "stateMutability": "view",
      "type": "function"
    },
    {
      "inputs": [
        {
          "internalType": "string",
          "name": "tokenURI",
          "type": "string"
        }
      ],
      "name": "createRecord",
      "outputs": [],
      "stateMutability": "payable",
      "type": "function"
    },
    {
      "inputs": [
        {
          "internalType": "uint256",
          "name": "tokenId",
          "type": "uint256"
        }
      ],
      "name": "getApproved",
      "outputs": [
        {
          "internalType": "address",
          "name": "",
          "type": "address"
        }
      ],
      "stateMutability": "view",
      "type": "function"
    },
    {
      "inputs": [
        {
          "internalType": "address",
          "name": "id",
          "type": "address"
        }
      ],
      "name": "getRecord",
      "outputs": [
        {
          "components": [
            {
              "internalType": "address",
              "name": "recordOwner",
              "type": "address"
            },
            {
              "internalType": "string",
              "name": "tokenURI",
              "type": "string"
            },
            {
              "internalType": "uint256",
              "name": "tokenID",
              "type": "uint256"
            },
            {
              "internalType": "bool",
              "name": "isValue",
              "type": "bool"
            }
          ],
          "internalType": "struct Yooci.Record",
          "name": "",
          "type": "tuple"
        }
      ],
      "stateMutability": "view",
      "type": "function"
    },
    {
      "inputs": [
        {
          "internalType": "address",
          "name": "owner",
          "type": "address"
        },
        {
          "internalType": "address",
          "name": "operator",
          "type": "address"
        }
      ],
      "name": "isApprovedForAll",
      "outputs": [
        {
          "internalType": "bool",
          "name": "",
          "type": "bool"
        }
      ],
      "stateMutability": "view",
      "type": "function"
    },
    {
      "inputs": [],
      "name": "name",
      "outputs": [
        {
          "internalType": "string",
          "name": "",
          "type": "string"
        }
      ],
      "stateMutability": "view",
      "type": "function"
    },
    {
      "inputs": [
        {
          "internalType": "uint256",
          "name": "tokenId",
          "type": "uint256"
        }
      ],
      "name": "ownerOf",
      "outputs": [
        {
          "internalType": "address",
          "name": "",
          "type": "address"
        }
      ],
      "stateMutability": "view",
      "type": "function"
    },
    {
      "inputs": [
        {
          "internalType": "address",
          "name": "from",
          "type": "address"
        },
        {
          "internalType": "address",
          "name": "to",
          "type": "address"
        },
        {
          "internalType": "uint256",
          "name": "tokenId",
          "type": "uint256"
        }
      ],
      "name": "safeTransferFrom",
      "outputs": [],
      "stateMutability": "nonpayable",
      "type": "function"
    },
    {
      "inputs": [
        {
          "internalType": "address",
          "name": "from",
          "type": "address"
        },
        {
          "internalType": "address",
          "name": "to",
          "type": "address"
        },
        {
          "internalType": "uint256",
          "name": "tokenId",
          "type": "uint256"
        },
        {
          "internalType": "bytes",
          "name": "_data",
          "type": "bytes"
        }
      ],
      "name": "safeTransferFrom",
      "outputs": [],
      "stateMutability": "nonpayable",
      "type": "function"
    },
    {
      "inputs": [
        {
          "internalType": "address",
          "name": "operator",
          "type": "address"
        },
        {
          "internalType": "bool",
          "name": "approved",
          "type": "bool"
        }
      ],
      "name": "setApprovalForAll",
      "outputs": [],
      "stateMutability": "nonpayable",
      "type": "function"
    },
    {
      "inputs": [
        {
          "internalType": "bytes4",
          "name": "interfaceId",
          "type": "bytes4"
        }
      ],
      "name": "supportsInterface",
      "outputs": [
        {
          "internalType": "bool",
          "name": "",
          "type": "bool"
        }
      ],
      "stateMutability": "view",
      "type": "function"
    },
    {
      "inputs": [],
      "name": "symbol",
      "outputs": [
        {
          "internalType": "string",
          "name": "",
          "type": "string"
        }
      ],
      "stateMutability": "view",
      "type": "function"
    },
    {
      "inputs": [
        {
          "internalType": "uint256",
          "name": "tokenId",
          "type": "uint256"
        }
      ],
      "name": "tokenURI",
      "outputs": [
        {
          "internalType": "string",
          "name": "",
          "type": "string"
        }
      ],
      "stateMutability": "view",
      "type": "function"
    },
    {
      "inputs": [
        {
          "internalType": "address",
          "name": "from",
          "type": "address"
        },
        {
          "internalType": "address",
          "name": "to",
          "type": "address"
        },
        {
          "internalType": "uint256",
          "name": "tokenId",
          "type": "uint256"
        }
      ],
      "name": "transferFrom",
      "outputs": [],
      "stateMutability": "nonpayable",
      "type": "function"
    },
    {
      "inputs": [
        {
          "internalType": "string",
          "name": "tokenURI",
          "type": "string"
        }
      ],
      "name": "updateRecord",
      "outputs": [],
      "stateMutability": "payable",
      "type": "function"
    }
  ],
  "bytecode": "0x60806040523480156200001157600080fd5b506040805180820182526005815264596f6f636960d81b602080830191825283518085019094526003845262594f4f60e81b9084015281519192916200005a916000916200008b565b508051620000709060019060208401906200008b565b5050600780546001600160a01b03191633179055506200016d565b828054620000999062000131565b90600052602060002090601f016020900481019282620000bd576000855562000108565b82601f10620000d857805160ff191683800117855562000108565b8280016001018555821562000108579182015b8281111562000108578251825591602001919060010190620000eb565b50620001169291506200011a565b5090565b5b808211156200011657600081556001016200011b565b600181811c908216806200014657607f821691505b6020821081036200016757634e487b7160e01b600052602260045260246000fd5b50919050565b611ad2806200017d6000396000f3fe6080604052600436106100f35760003560e01c80636352211e1161008a578063b88d4fde11610059578063b88d4fde146102ac578063c87b56dd146102cc578063db70504b146102ec578063e985e9c5146102ff57600080fd5b80636352211e1461022957806370a082311461024957806395d89b4114610277578063a22cb4651461028c57600080fd5b80631624e985116100c65780631624e985146101a957806323b872dd146101bc57806342842e0e146101dc578063617fba04146101fc57600080fd5b806301ffc9a7146100f857806306fdde031461012d578063081812fc1461014f578063095ea7b314610187575b600080fd5b34801561010457600080fd5b50610118610113366004611500565b610348565b60405190151581526020015b60405180910390f35b34801561013957600080fd5b5061014261039a565b6040516101249190611575565b34801561015b57600080fd5b5061016f61016a366004611588565b61042c565b6040516001600160a01b039091168152602001610124565b34801561019357600080fd5b506101a76101a23660046115bd565b6104b9565b005b6101a76101b7366004611673565b6105ce565b3480156101c857600080fd5b506101a76101d73660046116bc565b61066f565b3480156101e857600080fd5b506101a76101f73660046116bc565b6106a0565b34801561020857600080fd5b5061021c6102173660046116f8565b6106bb565b6040516101249190611713565b34801561023557600080fd5b5061016f610244366004611588565b6107d6565b34801561025557600080fd5b506102696102643660046116f8565b61084d565b604051908152602001610124565b34801561028357600080fd5b506101426108d4565b34801561029857600080fd5b506101a76102a7366004611763565b6108e3565b3480156102b857600080fd5b506101a76102c736600461179f565b6108f2565b3480156102d857600080fd5b506101426102e7366004611588565b61092a565b6101a76102fa366004611673565b610aa0565b34801561030b57600080fd5b5061011861031a36600461181b565b6001600160a01b03918216600090815260056020908152604080832093909416825291909152205460ff1690565b60006001600160e01b031982166380ac58cd60e01b148061037957506001600160e01b03198216635b5e139f60e01b145b8061039457506301ffc9a760e01b6001600160e01b03198316145b92915050565b6060600080546103a99061184e565b80601f01602080910402602001604051908101604052809291908181526020018280546103d59061184e565b80156104225780601f106103f757610100808354040283529160200191610422565b820191906000526020600020905b81548152906001019060200180831161040557829003601f168201915b5050505050905090565b600061043782610b88565b61049d5760405162461bcd60e51b815260206004820152602c60248201527f4552433732313a20617070726f76656420717565727920666f72206e6f6e657860448201526b34b9ba32b73a103a37b5b2b760a11b60648201526084015b60405180910390fd5b506000908152600460205260409020546001600160a01b031690565b60006104c4826107d6565b9050806001600160a01b0316836001600160a01b0316036105315760405162461bcd60e51b815260206004820152602160248201527f4552433732313a20617070726f76616c20746f2063757272656e74206f776e656044820152603960f91b6064820152608401610494565b336001600160a01b038216148061054d575061054d813361031a565b6105bf5760405162461bcd60e51b815260206004820152603860248201527f4552433732313a20617070726f76652063616c6c6572206973206e6f74206f7760448201527f6e6572206e6f7220617070726f76656420666f7220616c6c00000000000000006064820152608401610494565b6105c98383610ba5565b505050565b6105d7336106bb565b6060015115156001146105e957600080fd5b60006105f4336106bb565b604090810151336000908152600960209081529290208451919350610622926001909101919085019061144e565b5061062d8183610c13565b7f4ba9a8b1ab42e29ed5f90de351c79372acf17449fab8cde691a853c824ca747233838360016040516106639493929190611882565b60405180910390a15050565b6106793382610c9e565b6106955760405162461bcd60e51b8152600401610494906118be565b6105c9838383610d84565b6105c9838383604051806020016040528060008152506108f2565b6106f1604051806080016040528060006001600160a01b0316815260200160608152602001600081526020016000151581525090565b6001600160a01b0380831660009081526009602090815260409182902082516080810190935280549093168252600183018054929392918401916107349061184e565b80601f01602080910402602001604051908101604052809291908181526020018280546107609061184e565b80156107ad5780601f10610782576101008083540402835291602001916107ad565b820191906000526020600020905b81548152906001019060200180831161079057829003601f168201915b50505091835250506002820154602082015260039091015460ff16151560409091015292915050565b6000818152600260205260408120546001600160a01b0316806103945760405162461bcd60e51b815260206004820152602960248201527f4552433732313a206f776e657220717565727920666f72206e6f6e657869737460448201526832b73a103a37b5b2b760b91b6064820152608401610494565b60006001600160a01b0382166108b85760405162461bcd60e51b815260206004820152602a60248201527f4552433732313a2062616c616e636520717565727920666f7220746865207a65604482015269726f206164647265737360b01b6064820152608401610494565b506001600160a01b031660009081526003602052604090205490565b6060600180546103a99061184e565b6108ee338383610f24565b5050565b6108fc3383610c9e565b6109185760405162461bcd60e51b8152600401610494906118be565b61092484848484610ff2565b50505050565b606061093582610b88565b61099b5760405162461bcd60e51b815260206004820152603160248201527f45524337323155524953746f726167653a2055524920717565727920666f72206044820152703737b732bc34b9ba32b73a103a37b5b2b760791b6064820152608401610494565b600082815260066020526040812080546109b49061184e565b80601f01602080910402602001604051908101604052809291908181526020018280546109e09061184e565b8015610a2d5780601f10610a0257610100808354040283529160200191610a2d565b820191906000526020600020905b815481529060010190602001808311610a1057829003601f168201915b505050505090506000610a4b60408051602081019091526000815290565b90508051600003610a5d575092915050565b815115610a8f578082604051602001610a7792919061190f565b60405160208183030381529060405292505050919050565b610a9884611025565b949350505050565b610aae600880546001019055565b6000610ab960085490565b9050610ac582826110fd565b506040805160808101825233808252602080830186815283850186905260016060850181905260009384526009835294909220835181546001600160a01b0319166001600160a01b039091161781559151805193949293610b2d93850192919091019061144e565b5060408281015160028301556060909201516003909101805460ff1916911515919091179055517f93b1fafb17998ab6e724f262573d3008b3e484ff152f5865ee5810be4dede6829061066390339085908590600190611882565b6000908152600260205260409020546001600160a01b0316151590565b600081815260046020526040902080546001600160a01b0319166001600160a01b0384169081179091558190610bda826107d6565b6001600160a01b03167f8c5be1e5ebec7d5bd14f71427d1e84f3dd0314c0f7b2291e5b200ac8c7c3b92560405160405180910390a45050565b610c1c82610b88565b610c7f5760405162461bcd60e51b815260206004820152602e60248201527f45524337323155524953746f726167653a2055524920736574206f66206e6f6e60448201526d32bc34b9ba32b73a103a37b5b2b760911b6064820152608401610494565b600082815260066020908152604090912082516105c99284019061144e565b6000610ca982610b88565b610d0a5760405162461bcd60e51b815260206004820152602c60248201527f4552433732313a206f70657261746f7220717565727920666f72206e6f6e657860448201526b34b9ba32b73a103a37b5b2b760a11b6064820152608401610494565b6000610d15836107d6565b9050806001600160a01b0316846001600160a01b03161480610d505750836001600160a01b0316610d458461042c565b6001600160a01b0316145b80610a9857506001600160a01b0380821660009081526005602090815260408083209388168352929052205460ff16610a98565b826001600160a01b0316610d97826107d6565b6001600160a01b031614610dff5760405162461bcd60e51b815260206004820152602960248201527f4552433732313a207472616e73666572206f6620746f6b656e2074686174206960448201526839903737ba1037bbb760b91b6064820152608401610494565b6001600160a01b038216610e615760405162461bcd60e51b8152602060048201526024808201527f4552433732313a207472616e7366657220746f20746865207a65726f206164646044820152637265737360e01b6064820152608401610494565b610e6c600082610ba5565b6001600160a01b0383166000908152600360205260408120805460019290610e95908490611954565b90915550506001600160a01b0382166000908152600360205260408120805460019290610ec390849061196b565b909155505060008181526002602052604080822080546001600160a01b0319166001600160a01b0386811691821790925591518493918716917fddf252ad1be2c89b69c2b068fc378daa952ba7f163c4a11628f55a4df523b3ef91a4505050565b816001600160a01b0316836001600160a01b031603610f855760405162461bcd60e51b815260206004820152601960248201527f4552433732313a20617070726f766520746f2063616c6c6572000000000000006044820152606401610494565b6001600160a01b03838116600081815260056020908152604080832094871680845294825291829020805460ff191686151590811790915591519182527f17307eab39ab6107e8899845ad3d59bd9653f200f220920489ca2b5937696c31910160405180910390a3505050565b610ffd848484610d84565b61100984848484611119565b6109245760405162461bcd60e51b815260040161049490611983565b606061103082610b88565b6110945760405162461bcd60e51b815260206004820152602f60248201527f4552433732314d657461646174613a2055524920717565727920666f72206e6f60448201526e3732bc34b9ba32b73a103a37b5b2b760891b6064820152608401610494565b60006110ab60408051602081019091526000815290565b905060008151116110cb57604051806020016040528060008152506110f6565b806110d58461121a565b6040516020016110e692919061190f565b6040516020818303038152906040525b9392505050565b6000611109338361131b565b6111138284610c13565b50919050565b60006001600160a01b0384163b1561120f57604051630a85bd0160e11b81526001600160a01b0385169063150b7a029061115d9033908990889088906004016119d5565b6020604051808303816000875af1925050508015611198575060408051601f3d908101601f1916820190925261119591810190611a12565b60015b6111f5573d8080156111c6576040519150601f19603f3d011682016040523d82523d6000602084013e6111cb565b606091505b5080516000036111ed5760405162461bcd60e51b815260040161049490611983565b805181602001fd5b6001600160e01b031916630a85bd0160e11b149050610a98565b506001949350505050565b6060816000036112415750506040805180820190915260018152600360fc1b602082015290565b8160005b811561126b578061125581611a2f565b91506112649050600a83611a5e565b9150611245565b60008167ffffffffffffffff811115611286576112866115e7565b6040519080825280601f01601f1916602001820160405280156112b0576020820181803683370190505b5090505b8415610a98576112c5600183611954565b91506112d2600a86611a72565b6112dd90603061196b565b60f81b8183815181106112f2576112f2611a86565b60200101906001600160f81b031916908160001a905350611314600a86611a5e565b94506112b4565b6001600160a01b0382166113715760405162461bcd60e51b815260206004820181905260248201527f4552433732313a206d696e7420746f20746865207a65726f20616464726573736044820152606401610494565b61137a81610b88565b156113c75760405162461bcd60e51b815260206004820152601c60248201527f4552433732313a20746f6b656e20616c7265616479206d696e746564000000006044820152606401610494565b6001600160a01b03821660009081526003602052604081208054600192906113f090849061196b565b909155505060008181526002602052604080822080546001600160a01b0319166001600160a01b03861690811790915590518392907fddf252ad1be2c89b69c2b068fc378daa952ba7f163c4a11628f55a4df523b3ef908290a45050565b82805461145a9061184e565b90600052602060002090601f01602090048101928261147c57600085556114c2565b82601f1061149557805160ff19168380011785556114c2565b828001600101855582156114c2579182015b828111156114c25782518255916020019190600101906114a7565b506114ce9291506114d2565b5090565b5b808211156114ce57600081556001016114d3565b6001600160e01b0319811681146114fd57600080fd5b50565b60006020828403121561151257600080fd5b81356110f6816114e7565b60005b83811015611538578181015183820152602001611520565b838111156109245750506000910152565b6000815180845261156181602086016020860161151d565b601f01601f19169290920160200192915050565b6020815260006110f66020830184611549565b60006020828403121561159a57600080fd5b5035919050565b80356001600160a01b03811681146115b857600080fd5b919050565b600080604083850312156115d057600080fd5b6115d9836115a1565b946020939093013593505050565b634e487b7160e01b600052604160045260246000fd5b600067ffffffffffffffff80841115611618576116186115e7565b604051601f8501601f19908116603f01168101908282118183101715611640576116406115e7565b8160405280935085815286868601111561165957600080fd5b858560208301376000602087830101525050509392505050565b60006020828403121561168557600080fd5b813567ffffffffffffffff81111561169c57600080fd5b8201601f810184136116ad57600080fd5b610a98848235602084016115fd565b6000806000606084860312156116d157600080fd5b6116da846115a1565b92506116e8602085016115a1565b9150604084013590509250925092565b60006020828403121561170a57600080fd5b6110f6826115a1565b602080825282516001600160a01b0316828201528201516080604083015260009061174160a0840182611549565b9050604084015160608401526060840151151560808401528091505092915050565b6000806040838503121561177657600080fd5b61177f836115a1565b91506020830135801515811461179457600080fd5b809150509250929050565b600080600080608085870312156117b557600080fd5b6117be856115a1565b93506117cc602086016115a1565b925060408501359150606085013567ffffffffffffffff8111156117ef57600080fd5b8501601f8101871361180057600080fd5b61180f878235602084016115fd565b91505092959194509250565b6000806040838503121561182e57600080fd5b611837836115a1565b9150611845602084016115a1565b90509250929050565b600181811c9082168061186257607f821691505b60208210810361111357634e487b7160e01b600052602260045260246000fd5b6001600160a01b03851681526080602082018190526000906118a690830186611549565b60408301949094525090151560609091015292915050565b60208082526031908201527f4552433732313a207472616e736665722063616c6c6572206973206e6f74206f6040820152701ddb995c881b9bdc88185c1c1c9bdd9959607a1b606082015260800190565b6000835161192181846020880161151d565b83519083019061193581836020880161151d565b01949350505050565b634e487b7160e01b600052601160045260246000fd5b6000828210156119665761196661193e565b500390565b6000821982111561197e5761197e61193e565b500190565b60208082526032908201527f4552433732313a207472616e7366657220746f206e6f6e20455243373231526560408201527131b2b4bb32b91034b6b83632b6b2b73a32b960711b606082015260800190565b6001600160a01b0385811682528416602082015260408101839052608060608201819052600090611a0890830184611549565b9695505050505050565b600060208284031215611a2457600080fd5b81516110f6816114e7565b600060018201611a4157611a4161193e565b5060010190565b634e487b7160e01b600052601260045260246000fd5b600082611a6d57611a6d611a48565b500490565b600082611a8157611a81611a48565b500690565b634e487b7160e01b600052603260045260246000fdfea2646970667358221220497c8480c1b6053583c383d570baa4d1b5d1c1564e113f2649735809ba172e9964736f6c634300080d0033",
  "linkReferences": {},
  "deployedLinkReferences": {}
}